:020000040800F2
:1000000000800220551C0008A51C0008A51C000843
:10001000A51C0008A51C0008A51C00080000000085
:10002000000000000000000000000000A51C000807
:10003000A51C000800000000A51C0008A51C000865
:10004000A51C0008A51C0008A51C0008A51C00088C
:10005000A51C0008A51C0008A51C0008A51C00087C
:10006000A51C0008A51C0008A51C0008A51C00086C
:10007000A51C0008A51C0008A51C0008A51C00085C
:10008000A51C0008A51C0008A51C0008A51C00084C
:10009000E91B00080D1C0008A51C0008A51C000891
:1000A000A51C0008A51C0008A51C0008A51C00082C
:1000B000A51C0008A51C000800000000A51C0008E5
:1000C000A51C0008A51C0008A51C0008A51C00080C
:1000D000A51C0008A51C0008A51C0008A51C0008FC
:1000E000A51C0008A51C0008A51C000800000000B5
:1000F000000000000000000000000000A51C000837
:1001000000000000A51C000800000000A51C00085D
:10011000A51C000800000000A51C0008A51C000884
:10012000A51C0008A51C0008A51C0008A51C0008AB
:10013000A51C0008A51C0008A51C0008A51C00089B
:10014000A51C0008A51C0008A51C0008A51C00088B
:10015000A51C0008A51C0008A51C0008A51C00087B
:10016000A51C0008A51C0008A51C00080000000034
:10017000A51C0008A51C0008A51C0008A51C00085B
:10018000A51C000800000000A51C0008A51C000814
:04019000A51C0008A2
:1001980010B5054C237833B9044B13B10448AFF3B9
:1001A80000800123237010BD000000200000000023
:1001B800F01C000808B5034B1BB103490348AFF313
:1001C800008008BD0000000004000020F01C0008AA
:1001D80081F0004102E000BF83F0004330B54FEAF0
:1001E80041044FEA430594EA050F08BF90EA020F5D
:1001F8001FBF54EA000C55EA020C7FEA645C7FEAF0
:10020800655C00F0E2804FEA5454D4EB5555B8BF12
:100218006D420CDD2C4480EA020281EA030382EA83
:10022800000083EA010180EA020281EA0303362D15
:1002380088BF30BD11F0004F4FEA01314FF4801CE8
:100248004CEA113102D0404261EB410113F0004FFA
:100258004FEA03334CEA133302D0524263EB4303B1
:1002680094EA050F00F0A780A4F10104D5F1200E4F
:100278000DDB02FA0EFC22FA05F2801841F10001AA
:1002880003FA0EF2801843FA05F359410EE0A5F17E
:1002980020050EF1200E012A03FA0EFC28BF4CF0AF
:1002A800020C43FA05F3C01851EBE37101F0004565
:1002B80007D54FF0000EDCF1000C7EEB00006EEB72
:1002C8000101B1F5801F1BD3B1F5001F0CD34908FC
:1002D8005FEA30004FEA3C0C04F101044FEA445253
:1002E80012F5800F80F09A80BCF1004F08BF5FEADA
:1002F800500C50F1000041EB045141EA050130BDBA
:100308005FEA4C0C404141EB0101013C28BFB1F5CB
:10031800801FE9D291F0000F04BF01460020B1FA16
:1003280081F308BF2033A3F10B03B3F120020CDAE9
:100338000C3208DD02F1140CC2F10C0201FA0CF0C7
:1003480021FA02F10CE002F11402D8BFC2F1200C2C
:1003580001FA02F120FA0CFCDCBF41EA0C019040E2
:10036800E41AA2BF01EB0451294330BD6FEA04042B
:100378001F3C1CDA0C340EDC04F11404C4F1200216
:1003880020FA04F001FA02F340EA030021FA04F328
:1003980045EA030130BDC4F10C04C4F1200220FA7F
:1003A80002F001FA04F340EA0300294630BD21FABD
:1003B80004F0294630BD94F0000F83F4801306BF83
:1003C80081F480110134013D4EE77FEA645C18BF77
:1003D8007FEA655C29D094EA050F08BF90EA020F0E
:1003E80005D054EA000C04BF1946104630BD91EA06
:1003F800030F1EBF0021002030BD5FEA545C05D109
:100408004000494128BF41F0004130BD14F5800447
:100418003CBF01F5801130BD01F0004545F0FE41BB
:1004280041F470014FF0000030BD7FEA645C1ABFF0
:10043800194610467FEA655C1CBF0B46024650EA27
:10044800013406BF52EA033591EA030F41F4002153
:1004580030BD00BF90F0000F04BF0021704730B5D9
:100468004FF4806404F132044FF000054FF00001AE
:1004780050E700BF90F0000F04BF0021704730B56F
:100488004FF4806404F1320410F0004548BF404244
:100498004FF000013EE700BF42004FEAE2014FEA99
:1004A80031014FEA02701FBF12F07F4393F07F4F74
:1004B80081F06051704732F07F4208BF704793F077
:1004C8007F4F04BF41F40021704730B54FF460748A
:1004D80001F0004521F000411CE700BF50EA01028D
:1004E80008BF704730B54FF000050AE050EA010236
:1004F80008BF704730B511F0004502D5404261EBA6
:1005080041014FF4806404F132045FEA915C3FF4E6
:10051800D8AE4FF003025FEADC0C18BF03325FEA83
:10052800DC0C18BF033202EBDC02C2F1200300FA34
:1005380003FC20FA02F001FA03FE40EA0E0021FA59
:1005480002F11444BDE600BF70B54FF0FF0C4CF447
:10055800E06C1CEA11541DBF1CEA135594EA0C0FF9
:1005680095EA0C0F00F0DEF82C4481EA030621EA34
:100578004C5123EA4C5350EA013518BF52EA03356F
:1005880041F4801143F4801338D0A0FB02CE4FF021
:100598000005E1FB02E506F00042E0FB03E54FF051
:1005A8000006E1FB03569CF0000F18BF4EF0010E49
:1005B800A4F1FF04B6F5007F64F5407404D25FEA45
:1005C8004E0E6D4146EB060642EAC62141EA5551F8
:1005D8004FEAC52040EA5E504FEACE2EB4F1FD0C3A
:1005E80088BFBCF5E06F1ED8BEF1004F08BF5FEAB8
:1005F800500E50F1000041EB045170BD06F000466A
:1006080046EA010140EA020081EA0301B4EB5C0416
:10061800C2BFD4EB0C0541EA045170BD41F480110E
:100628004FF0000E013C00F3AB8014F1360FDEBF33
:10063800002001F0004170BDC4F10004203C35DA0F
:100648000C341BDC04F11404C4F1200500FA05F392
:1006580020FA04F001FA05F240EA020001F0004233
:1006680021F0004110EBD37021FA04F642EB0601A9
:100678005EEA430E08BF20EAD37070BDC4F10C04D3
:10068800C4F1200500FA04F320FA05F001FA04F297
:1006980040EA020001F0004110EBD37041F1000183
:1006A8005EEA430E08BF20EAD37070BDC4F120058E
:1006B80000FA05F24EEA020E20FA04F301FA05F2F6
:1006C80043EA020321FA04F001F0004121FA04F29E
:1006D80020EA020000EBD3705EEA430E08BF20EA6E
:1006E800D37070BD94F0000F0FD101F000464000A8
:1006F80041EB010111F4801F08BF013CF7D041EA2A
:10070800060195F0000F18BF704703F0004652002D
:1007180043EB030313F4801F08BF013DF7D043EAFE
:100728000603704794EA0C0F0CEA135518BF95EAB4
:100738000C0F0CD050EA410618BF52EA4306D1D13B
:1007480081EA030101F000414FF0000070BD50EA5A
:10075800410606BF1046194652EA430619D094EAE4
:100768000C0F02D150EA013613D195EA0C0F05D1CE
:1007780052EA03361CBF104619460AD181EA030122
:1007880001F0004141F0FE4141F470014FF00000DA
:1007980070BD41F0FE4141F4780170BD70B54FF075
:1007A800FF0C4CF4E06C1CEA11541DBF1CEA1355F5
:1007B80094EA0C0F95EA0C0F00F0A7F8A4EB0504D7
:1007C80081EA030E52EA03354FEA013100F08880CE
:1007D8004FEA03334FF0805545EA131343EA126397
:1007E8004FEA022245EA111545EA10654FEA00264C
:1007F8000EF000419D4208BF964244F1FD0404F505
:10080800407402D25B084FEA3202B61A65EB030560
:100818005B084FEA32024FF480104FF4002CB6EB1D
:10082800020E75EB030E22BFB61A754640EA0C009D
:100838005B084FEA3202B6EB020E75EB030E22BFDD
:10084800B61A754640EA5C005B084FEA3202B6EB1E
:10085800020E75EB030E22BFB61A754640EA9C00DD
:100868005B084FEA3202B6EB020E75EB030E22BFAD
:10087800B61A754640EADC0055EA060E18D04FEA6B
:10088800051545EA16754FEA06164FEAC30343EA0B
:1008980052734FEAC2025FEA1C1CC0D111F4801FD8
:1008A8000BD141EA00014FF000004FF0004CB6E7D1
:1008B80011F4801F04BF01430020B4F1FD0C88BF70
:1008C800BCF5E06F3FF6AFAEB5EB030C04BFB6EB7B
:1008D800020C5FEA500C50F1000041EB045170BD6E
:1008E8000EF0004E4EEA113114EB5C04C2BFD4EB9B
:1008F8000C0541EA045170BD41F480114FF0000E1F
:10090800013C90E645EA060E8DE60CEA135594EA9A
:100918000C0F08BF95EA0C0F3FF43BAF94EA0C0F9D
:100928000AD150EA01347FF434AF95EA0C0F7FF412
:1009380025AF104619462CE795EA0C0F06D152EA66
:1009480003353FF4FDAE1046194622E750EA41064A
:1009580018BF52EA43067FF4C5AE50EA41047FF45B
:100968000DAF52EA43057FF4EBAE12E74FEA4102BE
:10097800B2F1E04324BFB3F5001CDCF1FE5C0DD9F5
:1009880001F0004C4FEAC0024CEA5070B2F1004F3F
:1009980040EB830008BF20F00100704711F0804F42
:1009A80021D113F13872BCBF01F00040704741F407
:1009B80080114FEA5252C2F11802C2F1200C10FA0B
:1009C8000CF320FA02F018BF40F001004FEAC123EF
:1009D8004FEAD32303FA0CFC40EA0C0023FA02F393
:1009E8004FEA4303CCE77FEA625307D150EA013369
:1009F8001EBF4FF0FE4040F44000704701F0004039
:100A080040F0FE4040F40000704700BF80B483B05F
:100A180000AF78607B68074A934205D1064B9B6D0F
:100A2800054A43F00073936500BF0C37BD465DF877
:100A3800047B7047006400400010024080B483B01B
:100A480000AF78607B681B6843F400427B681A60DB
:100A580000BF7B681B6803F40043002BF9D17B6857
:100A68001B6843F001027B681A6000BF7B685B6803
:100A780003F00103002BF9D07B681B6823F0020206
:100A88007B681A6000BF7B685B6803F00203002B79
:100A9800F9D17B681B6823F004027B681A607B68C5
:100AA8001B6823F008027B681A607B681B6843F0A8
:100AB80010027B681A607B681B6823F020027B6841
:100AC8001A607B681B6823F040027B681A607B68A9
:100AD8001B6823F080027B681A607B681B6823F41C
:100AE80000427B681A607B681B6823F400427B68BD
:100AF8001A6000BF0C37BD465DF8047B704780B4B0
:100B080083B000AF78607B68DB6943F080427B6824
:100B1800DA617B68DB6923F47F7323F003037A6867
:100B2800D3617B68DB6923F470227B68DA617B68B8
:100B3800DB6923F4E0027B68DA617B68DB6943F0F8
:100B480001027B68DA617B68DB6943F430227B68E9
:100B5800DA617B68DB6943F400127B68DA6100BF05
:100B68000C37BD465DF8047B704780B483B000AF96
:100B78007860084611461A460346FB700B46BB7060
:100B880013467B707B68D3F81C323A7C012101FA4A
:100B980002F2D2431A407B68C3F81C227B685B6868
:100BA80043F001027B685A60FB78002B0BD07B680E
:100BB800D3F804323A7C012101FA02F21A437B6825
:100BC800C3F804220BE07B68D3F804323A7C012195
:100BD80001FA02F2D2431A407B68C3F80422BB78B8
:100BE800002B0BD07B68D3F80C323A7C012101FA38
:100BF80002F21A437B68C3F80C220BE07B68D3F837
:100C08000C323A7C012101FA02F2D2431A407B6885
:100C1800C3F80C227B78002B0BD07B68D3F81432F6
:100C28003A7C012101FA02F21A437B68C3F81422C4
:100C38000BE07B68D3F814323A7C012101FA02F206
:100C4800D2431A407B68C3F814227B68D3F81C325D
:100C58003A7C012101FA02F21A437B68C3F81C228C
:100C68007B68D3F8003223F001027B68C3F80022C6
:100C780000BF0C37BD465DF8047B704780B485B073
:100C880000AFF860B9607A60FB70FB68D3F8003297
:100C980043F00102FB68C3F80022FB68D3F81C325A
:100CA800FA78012101FA02F2D2431A40FB68C3F82C
:100CB8001C22FA78FB68483253F83230FA78FB681D
:100CC8004832002143F83210FB78FA684833DB00D9
:100CD80013445B68FB78FA684833DB00134400224E
:100CE8005A60FA78FB684832B96843F83210FB78E2
:100CF800FA684833DB0013447A685A60FB68D3F813
:100D08001C32FA78012101FA02F21A43FB68C3F88F
:100D18001C22FB68D3F8003223F00102FB68C3F8F9
:100D2800002200BF1437BD465DF8047B704780B4CD
:100D380085B000AFF8607A601A460B46FB7213461E
:100D4800BB723B7EFA6818331B0113441B683B7E59
:100D5800FA6818331B01134400221A603B7E022BE9
:100D680036D8FB7A002B0AD07B68DA003B7E42F04B
:100D78000402F96818331B010B441A6007E03B7E34
:100D88007A685205F96818331B010B441A60BB7A5C
:100D9800002B0ED03B7EFA6818331B0113441A68E7
:100DA8003B7E42F00202F96818331B010B441A60BB
:100DB8000FE03B7EFA6818331B0113441A683B7E28
:100DC80022F00202F96818331B010B441A6000E094
:100DD80000BF1437BD465DF8047B704780B485B00A
:100DE80000AFF860C7E900230B46FB723B7EFA6848
:100DF80018331B01134404331B683B7EFA6818330D
:100E08001B011344043300221A603B7EFA681B015D
:100E1800134403F5C4731B683B7EFA681B01134433
:100E280003F5C47300221A603B7EFA681B01134461
:100E380003F5C6731B683B7EFA681B01134403F570
:100E4800C67300221A603B7E022B22D8FA7A3B7EB8
:100E580002F00F02F96818331B010B4404331A60BF
:100E68003B7E3A68F9681B010B4403F5C4731A60AA
:100E7800D7E900014FF000024FF000030A000023F9
:100E8800397E1046FA680B01134403F5C6731860DF
:100E980000E000BF1437BD465DF8047B704780B49E
:100EA80083B000AF78607B685B6943F070027B6851
:100EB8005A6100BF0C37BD465DF8047B704780B4AB
:100EC80083B000AF78607B685B6943F00E027B6893
:100ED8005A6100BF0C37BD465DF8047B704780B48B
:100EE80085B000AF78607B689B691B09DBB203F0B3
:100EF8000703FB73FB7B18461437BD465DF8047B7C
:100F0800704780B582B000AF786039607B68DB6875
:100F180003F00303002B27D07868FFF7E0FF0346B0
:100F2800002B1AD17B68D3F8B0213B681A607B6824
:100F3800D3F8B4213B685A607B68D3F8B8213B6882
:100F48009A607B68D3F8BC213B68DA607B68DB6811
:100F580043F020027B68DA604DE07B68DB6843F091
:100F680020027B68DA6046E07B68DB6803F00803F0
:100F7800002B1AD07B68D3F8B0213B681A607B68D5
:100F8800D3F8B4213B685A607B68D3F8B8213B6832
:100F98009A607B68D3F8BC213B68DA607B68DB68C1
:100FA80043F020027B68DA6025E07B68DB6803F0A9
:100FB8001003002B1FD07B68DB6823F010027B68CE
:100FC800DA607B68D3F8B0213B681A607B68D3F895
:100FD800B4213B685A607B68D3F8B8213B689A60B3
:100FE8007B68D3F8BC213B68DA607B68DB6843F038
:100FF80020027B68DA600837BD4680BD80B582B0C4
:1010080000AF786039607B681B6903F00303002B2D
:1010180027D07868FFF763FF0346002B1AD17B6857
:10102800D3F8C0213B681A607B68D3F8C4213B68B9
:101038005A607B68D3F8C8213B689A607B68D3F80C
:10104800CC213B68DA607B681B6943F020027B682F
:101058001A614DE07B681B6943F020027B681A61C6
:1010680046E07B681B6903F00803002B1AD07B68F5
:10107800D3F8C0213B681A607B68D3F8C4213B6869
:101088005A607B68D3F8C8213B689A607B68D3F8BC
:10109800CC213B68DA607B681B6943F020027B68DF
:1010A8001A6125E07B681B6903F01003002B1FD031
:1010B8007B681B6923F010027B681A617B68D3F890
:1010C800C0213B681A607B68D3F8C4213B685A602A
:1010D8007B68D3F8C8213B689A607B68D3F8CC2139
:1010E8003B68DA607B68DB6843F020027B68DA6083
:1010F8000837BD4680BD80B483B000AF786008462D
:1011080011461A460346FB700B46BB7013467B70AC
:101118007B681B68FA785200032101FA02F2D24375
:101128001A407B681A607B681A68FB785B000221AA
:1011380001FA03F31A437B681A607B685B68BA7824
:1011480002F00101FA7801FA02F21A437B685A6048
:101158007B689B687978FA78520001FA02F21A43A0
:101168007B689A60FB78072B0BD97B685B6A397CB4
:10117800FA78083A920001FA02F21A437B685A6236
:1011880009E07B681B6A397CFA78920001FA02F25E
:101198001A437B681A623B7D002B0AD07B68DA68A9
:1011A800FB785B00012101FA03F31A437B68DA60DC
:1011B8000AE07B68DA68FB785B00032101FA03F335
:1011C800DB431A407B68DA6000BF0C37BD465DF828
:1011D800047B704780B483B000AF7860084611463E
:1011E8001A460346FB700B46BB7013467B70BB78F0
:1011F800012B15D17B681B68FA785200032101FA8C
:1012080002F2D2431A407B681A607B681A68FB783E
:101218005B00012101FA03F31A437B681A600FE0AF
:101228007B681B697B6800221A617B681B68FA78F7
:101238005200032101FA02F2D2431A407B681A6075
:101248007B78002B0AD07B68DA68FB785B00012189
:1012580001FA03F31A437B68DA600AE07B68DA680C
:10126800FB785B00032101FA03F3DB431A407B6838
:10127800DA6000BF0C37BD465DF8047B704700009C
:1012880080B483B000AF78607B68B3F1904F06D12B
:10129800214BDB6C204A43F00103D36435E07B68C3
:1012A8001E4A934206D11C4BDB6C1B4A43F00203D7
:1012B800D3642AE07B681A4A934206D1164BDB6C4A
:1012C800154A43F00403D3641FE07B68154A934230
:1012D80006D1114BDB6C104A43F00803D36414E0C9
:1012E8007B68114A934206D10B4BDB6C0A4A43F0E8
:1012F8001003D36409E07B680C4A934205D1064B7E
:10130800DB6C054A43F08003D36400BF0C37BD464D
:101318005DF8047B704700BF0010024000040048DD
:1013280000080048000C004800100048001C004855
:1013380080B483B000AF0346FB7100BF0D4B1B6840
:10134800002BFBD00B4B1B680A4A43F008031360C1
:10135800084B1B68074A23F0F0031360054B1A6813
:10136800FB79044913430B6000BF0C37BD465DF899
:10137800047B70470010024080B483B000AF7860EF
:1013880000BF7B685A1E7A60002BFAD100BF00BFED
:101398000C37BD465DF8047B7047000080B483B00D
:1013A80000AF78607B680C4A934205D10B4B9B6D6C
:1013B8000A4A43F4001393657B68094A934205D1AE
:1013C800064B9B6D054A43F40003936500BF0C3739
:1013D800BD465DF8047B7047005400400010024091
:1013E800005C004080B483B000AF78607B681B6805
:1013F80023F001027B681A607B681B6943F0805206
:101408007B681A617B681B6943F009027B681A6173
:101418007B681B6943F440727B681A617B681B69AF
:1014280043F400327B681A617B681B6943F44012FD
:101438007B681A617B681B6843F480527B681A607A
:101448007B681B6843F001027B681A6000BF0C3799
:10145800BD465DF8047B704780B584B000AF786006
:101468000B46FB701346BB704FF47A73FB607B68C6
:101478005B6823F400627B685A607B685B6823F0D2
:10148800FF027B685A607B685A68FB785B001A43E6
:101498007B685A607B685B6823F480627B685A606B
:1014A8007B685B6843F480327B685A607B685B6862
:1014B80023F000727B685A607B685B6843F40052D3
:1014C8007B685A6005E0FB68013BFB60FB68002B0A
:1014D80006D07B689B6903F00203002BF3D000E081
:1014E80000BFBA787B689A623220FFF745FF7B68B5
:1014F800DB6943F020027B68DA617B681B6823F0B4
:1015080001027B681A607B681B6843F001027B68F4
:101518001A6000BF1037BD4680BD80B584B000AFEB
:1015280078600B46FB704FF47A73FB607B685B68EE
:1015380023F400627B685A607B685B6843F48052DE
:101548007B685A607B685B6823F0FF027B685A609F
:101558007B685A68FB785B001A437B685A607B6833
:101568005B6843F480627B685A607B685B6843F41D
:1015780000327B685A607B685B6823F000727B6886
:101588005A607B685B6843F400527B685A6005E0E8
:10159800FB68013BFB60FB68002B06D07B689B69FE
:1015A80003F00403002BF3D000E000BF4FF47A737C
:1015B800FB607B685B6AFB726420FFF7DDFE05E079
:1015C800FB68013BFB60FB68002B06D07B689B69CE
:1015D80003F00403002BF3D000E000BF4FF47A734C
:1015E800FB607B685B6ABB726420FFF7C5FE7B68A3
:1015F8005B6843F480427B685A607B68DB6943F030
:1016080020027B68DA617B68DB6943F010027B6843
:10161800DA617B681B6823F001027B681A607B68CB
:101628001B6843F001027B681A60FB7A1B021AB23E
:10163800BB7A1BB213433B81B7F908301846103701
:10164800BD4680BD80B582B000AF786008461146BF
:101658001A460346FB700B46BB7013467B707B68CB
:101668005B6823F400627B685A607B685B6823F0E0
:10167800FF027B685A607B685A68FB785B001A43F4
:101688007B685A607B685B6823F480627B685A6079
:101698007B685B6843F400327B685A607B685B68F0
:1016A80023F000727B685A607B685B6843F40052E1
:1016B8007B685A6000BF7B689B6903F00203002BBC
:1016C800F9D0BA787B689A626420FFF755FE00BFAC
:1016D8007B689B6903F00203002BF9D07A787B685A
:1016E8009A626420FFF748FE7B685B6843F4804297
:1016F8007B685A607B68DB6943F020027B68DA61AB
:101708007B681B6823F001027B681A607B681B6892
:1017180043F001027B681A6000BF0837BD4680BDF0
:1017280080B485B000AF78600B46FB707B68532BA4
:101738001AD87B685B09FB607B6803F01F03BB60FA
:101748000122BB6802FA03F30A4A1946FB6842F809
:101758002310FB781B01074AD9B27B68134403F5B1
:1017680040730A461A7000E000BF1437BD465DF8A2
:10177800047B704700E100E080B483B000AF03460B
:10178800FB7197F90730002B0CDBFB7903F01F0284
:10179800074997F907305B09012000FA02F2603324
:1017A80041F8232000BF0C37BD465DF8047B704725
:1017B80000E100E080B500AF00236B2268211448E7
:1017C800FFF740FF00231C2268211148FFF73AFF6A
:1017D80000231B2268210E48FFF734FF0723192234
:1017E80068210B48FFF72EFF01231A2268210848B9
:1017F800FFF728FFFF23232268210548FFF722FF70
:1018080040236A2268210248FFF71CFF00BF80BD01
:10181800005C004080B584B000AF0346FB71FB79E3
:101828001A4668210748FFF717FE68210548FFF7A1
:1018380074FE0346FB81B7F90E3018461037BD46D3
:1018480080BD00BF005C004080B582B002AF00F0F0
:1018580081F800F09BF8FFF7ADFF04211420FFF793
:101868005FFF05211520FFF75BFF3348FFF727FBD4
:101878003148FFF714FB00230093002301220121C4
:101888002D48FFF772F900234FF4FD624FF4FD6114
:101898002948FFF7F3F900230093002340F2DF7291
:1018A80000212548FFF743FA00230093234A4FF00D
:1018B800000308212048FFF791FA01230093002331
:1018C80040F2DF7200211C48FFF731FA0123009330
:1018D8001B4A4FF0000308211748FFF77FFA08E07A
:1018E800184B5B69174A83F400535361164800F09C
:1018F80065F9144B1B6903F00403002BF0D0114B5E
:101908001B6903F00403002B09D00E4B5B690D4AD9
:1019180023F4005353610D4800F050F907E0094BD8
:101928005B69084A83F40053536100F081F8084862
:1019380000F044F9E3E700BF0064004002010D0035
:1019480002012F0000080048E0930400400D030046
:10195800F049020080B500AF8020FFF7E9FC074896
:10196800FFF78EFC0648FFF78BFC0648FFF716FDCD
:101978000548FFF74BF800BF80BD00BF00040048D2
:1019880000080048005C00400064004080B582B058
:1019980002AF0023002202212148FFF71BFC00238D
:1019A8000193042300930223012200211C48FFF71E
:1019B800A2FB0023019304230093022301220121A7
:1019C8001748FFF798FB002301930923009303238B
:1019D800002208211348FFF78EFB002301220D2166
:1019E8000F48FFF7F7FB0023019309230093032314
:1019F800002209210B48FFF77EFB0B48FFF7F2FC9A
:101A08000A48FFF71BF80948FFF779F8074B1B68E6
:101A1800064A23F00103136000BFBD4680BD00BF26
:101A28000008004800040048005C004000640040D2
:101A380080B500AF3B20FFF7EDFE03461A46524B38
:101A48001A80514BB3F900301846FEF713FD4FF0DA
:101A580000024E4BFEF7A2FE02460B461046194600
:101A6800FEF784FF03464A4A13603D20FFF7D2FE83
:101A780003461A46474B1A80464BB3F900301846BE
:101A8800FEF7F8FC4FF00002404BFEF787FE0246D7
:101A98000B4610461946FEF769FF03463E4A136097
:101AA8003F20FFF7B7FE03461A463C4B1A803B4BD4
:101AB800B3F900301846FEF7DDFC4FF00002334B57
:101AC800FEF76CFE02460B4610461946FEF74EFF1F
:101AD8000346334A13604320FFF79CFE03461A4629
:101AE800304B1A802F4BB3F900301846FEF7C2FC72
:101AF80023A3D3E90023FEF751FE02460B46104606
:101B08001946FEF733FF0346274A13604520FFF7BF
:101B180081FE03461A46254B1A80244BB3F9003040
:101B28001846FEF7A7FC16A3D3E90023FEF736FEF6
:101B380002460B4610461946FEF718FF03461C4A94
:101B480013604720FFF766FE03461A46194B1A80B2
:101B5800184BB3F900301846FEF78CFC08A3D3E9FC
:101B68000023FEF71BFE02460B4610461946FEF7F9
:101B7800FDFE0346104A136000BF80BDAFF300802E
:101B880000000000006060401C0000200000D04001
:101B9800240000201E000020280000202000002033
:101BA8002C000020300000203800002032000020E7
:101BB8003C000020340000204000002080B483B0A6
:101BC80000AF786000BF7B685A1E7A60002BFAD19C
:101BD80000BF00BF0C37BD465DF8047B70470000AE
:101BE80080B500AF1420FFF7C7FD044B1B681946EA
:101BF8000348FFF786F900BF80BD00BF44000020FE
:101C08000064004080B500AF1520FFF7B5FD044B18
:101C18001B6819460348FFF7F1F900BF80BD00BFF4
:101C2800480000200064004080B400AF064BD3F8A1
:101C38008830054A43F47003C2F8883000BFBD46B7
:101C48005DF8047B704700BF00ED00E00D48854655
:101C5800FFF7EAFF0C480D490D4A002302E0D4586B
:101C6800C4500433C4188C42F9D30A4A0A4C0023DE
:101C780001E013600432A242FBD300F011F8FFF731
:101C8800E3FDFEE7008002200000002000000020A5
:101C9800101D0008000000204C000020FEE7000096
:101CA80070B50D4D0D4C641BA4100026A64209D139
:101CB8000B4D0C4C00F018F8641BA4100026A6422B
:101CC80005D170BD55F8043B98470136EEE755F845
:101CD800043B98470136F2E7081D0008081D000874
:101CE800081D00080C1D0008F8B500BFF8BC08BCAA
:101CF8009E467047F8B500BFF8BC08BC9E467047C2
:041D0800BD01000811
:041D0C009901000831
:0400000508001C557E
:00000001FF
